{
  "_format": "hh-sol-artifact-1",
  "contractName": "DonationTracker",
  "sourceName": "contracts/DonationTracker.sol",
  "abi": [
    {
      "anonymous": false,
      "inputs": [
        {
          "indexed": false,
          "internalType": "string",
          "name": "campaignId",
          "type": "string"
        },
        {
          "indexed": false,
          "internalType": "address",
          "name": "donor",
          "type": "address"
        },
        {
          "indexed": false,
          "internalType": "uint256",
          "name": "amount",
          "type": "uint256"
        }
      ],
      "name": "DonationReceived",
      "type": "event"
    },
    {
      "inputs": [
        {
          "internalType": "string",
          "name": "",
          "type": "string"
        },
        {
          "internalType": "uint256",
          "name": "",
          "type": "uint256"
        }
      ],
      "name": "campaignDonations",
      "outputs": [
        {
          "internalType": "address",
          "name": "donor",
          "type": "address"
        },
        {
          "internalType": "uint256",
          "name": "amount",
          "type": "uint256"
        },
        {
          "internalType": "uint256",
          "name": "timestamp",
          "type": "uint256"
        },
        {
          "internalType": "string",
          "name": "campaignId",
          "type": "string"
        }
      ],
      "stateMutability": "view",
      "type": "function"
    },
    {
      "inputs": [
        {
          "internalType": "string",
          "name": "",
          "type": "string"
        }
      ],
      "name": "campaignTotals",
      "outputs": [
        {
          "internalType": "uint256",
          "name": "",
          "type": "uint256"
        }
      ],
      "stateMutability": "view",
      "type": "function"
    },
    {
      "inputs": [
        {
          "internalType": "string",
          "name": "_campaignId",
          "type": "string"
        }
      ],
      "name": "donate",
      "outputs": [],
      "stateMutability": "payable",
      "type": "function"
    },
    {
      "inputs": [
        {
          "internalType": "string",
          "name": "_campaignId",
          "type": "string"
        }
      ],
      "name": "getCampaignTotal",
      "outputs": [
        {
          "internalType": "uint256",
          "name": "",
          "type": "uint256"
        }
      ],
      "stateMutability": "view",
      "type": "function"
    },
    {
      "inputs": [
        {
          "internalType": "string",
          "name": "_campaignId",
          "type": "string"
        }
      ],
      "name": "getDonations",
      "outputs": [
        {
          "components": [
            {
              "internalType": "address",
              "name": "donor",
              "type": "address"
            },
            {
              "internalType": "uint256",
              "name": "amount",
              "type": "uint256"
            },
            {
              "internalType": "uint256",
              "name": "timestamp",
              "type": "uint256"
            },
            {
              "internalType": "string",
              "name": "campaignId",
              "type": "string"
            }
          ],
          "internalType": "struct DonationTracker.Donation[]",
          "name": "",
          "type": "tuple[]"
        }
      ],
      "stateMutability": "view",
      "type": "function"
    }
  ],
  "bytecode": "0x608060405234801561001057600080fd5b50610f77806100206000396000f3fe60806040526004361061004a5760003560e01c8063117f389c1461004f5780631cd251d81461008c5780633a947e74146100c95780637e7db9c814610109578063b5aebc8014610146575b600080fd5b34801561005b57600080fd5b5061007660048036038101906100719190610743565b610162565b60405161008391906107a5565b60405180910390f35b34801561009857600080fd5b506100b360048036038101906100ae9190610743565b61018a565b6040516100c091906109b4565b60405180910390f35b3480156100d557600080fd5b506100f060048036038101906100eb9190610a02565b610303565b6040516101009493929190610ab7565b60405180910390f35b34801561011557600080fd5b50610130600480360381019061012b9190610743565b61040e565b60405161013d91906107a5565b60405180910390f35b610160600480360381019061015b9190610743565b61043c565b005b60006001826040516101749190610b3f565b9081526020016040518091039020549050919050565b606060008260405161019c9190610b3f565b9081526020016040518091039020805480602002602001604051908101604052809291908181526020016000905b828210156102f857838290600052602060002090600402016040518060800160405290816000820160009054906101000a900473ffffffffffffffffffffffffffffffffffffffff1673ffffffffffffffffffffffffffffffffffffffff1673ffffffffffffffffffffffffffffffffffffffff168152602001600182015481526020016002820154815260200160038201805461026790610b85565b80601f016020809104026020016040519081016040528092919081815260200182805461029390610b85565b80156102e05780601f106102b5576101008083540402835291602001916102e0565b820191906000526020600020905b8154815290600101906020018083116102c357829003601f168201915b505050505081525050815260200190600101906101ca565b505050509050919050565b600082805160208101820180518482526020830160208501208183528095505050505050818154811061033557600080fd5b9060005260206000209060040201600091509150508060000160009054906101000a900473ffffffffffffffffffffffffffffffffffffffff169080600101549080600201549080600301805461038b90610b85565b80601f01602080910402602001604051908101604052809291908181526020018280546103b790610b85565b80156104045780601f106103d957610100808354040283529160200191610404565b820191906000526020600020905b8154815290600101906020018083116103e757829003601f168201915b5050505050905084565b6001818051602081018201805184825260208301602085012081835280955050505050506000915090505481565b6000341161047f576040517f08c379a000000000000000000000000000000000000000000000000000000000815260040161047690610c02565b60405180910390fd5b600060405180608001604052803373ffffffffffffffffffffffffffffffffffffffff1681526020013481526020014281526020018381525090506000826040516104ca9190610b3f565b908152602001604051809103902081908060018154018082558091505060019003906000526020600020906004020160009091909190915060008201518160000160006101000a81548173ffffffffffffffffffffffffffffffffffffffff021916908373ffffffffffffffffffffffffffffffffffffffff160217905550602082015181600101556040820151816002015560608201518160030190816105729190610dce565b505050346001836040516105869190610b3f565b908152602001604051809103902060008282546105a39190610ecf565b925050819055507f30412083243f9fef583232e5c85525f63d20aa1de6567ab4532d2afbf86a87398233346040516105dd93929190610f03565b60405180910390a15050565b6000604051905090565b600080fd5b600080fd5b600080fd5b600080fd5b6000601f19601f8301169050919050565b7f4e487b7100000000000000000000000000000000000000000000000000000000600052604160045260246000fd5b61065082610607565b810181811067ffffffffffffffff8211171561066f5761066e610618565b5b80604052505050565b60006106826105e9565b905061068e8282610647565b919050565b600067ffffffffffffffff8211156106ae576106ad610618565b5b6106b782610607565b9050602081019050919050565b82818337600083830152505050565b60006106e66106e184610693565b610678565b90508281526020810184848401111561070257610701610602565b5b61070d8482856106c4565b509392505050565b600082601f83011261072a576107296105fd565b5b813561073a8482602086016106d3565b91505092915050565b600060208284031215610759576107586105f3565b5b600082013567ffffffffffffffff811115610777576107766105f8565b5b61078384828501610715565b91505092915050565b6000819050919050565b61079f8161078c565b82525050565b60006020820190506107ba6000830184610796565b92915050565b600081519050919050565b600082825260208201905092915050565b6000819050602082019050919050565b600073ffffffffffffffffffffffffffffffffffffffff82169050919050565b6000610817826107ec565b9050919050565b6108278161080c565b82525050565b6108368161078c565b82525050565b600081519050919050565b600082825260208201905092915050565b60005b8381101561087657808201518184015260208101905061085b565b60008484015250505050565b600061088d8261083c565b6108978185610847565b93506108a7818560208601610858565b6108b081610607565b840191505092915050565b60006080830160008301516108d3600086018261081e565b5060208301516108e6602086018261082d565b5060408301516108f9604086018261082d565b50606083015184820360608601526109118282610882565b9150508091505092915050565b600061092a83836108bb565b905092915050565b6000602082019050919050565b600061094a826107c0565b61095481856107cb565b935083602082028501610966856107dc565b8060005b858110156109a25784840389528151610983858261091e565b945061098e83610932565b925060208a0199505060018101905061096a565b50829750879550505050505092915050565b600060208201905081810360008301526109ce818461093f565b905092915050565b6109df8161078c565b81146109ea57600080fd5b50565b6000813590506109fc816109d6565b92915050565b60008060408385031215610a1957610a186105f3565b5b600083013567ffffffffffffffff811115610a3757610a366105f8565b5b610a4385828601610715565b9250506020610a54858286016109ed565b9150509250929050565b610a678161080c565b82525050565b600082825260208201905092915050565b6000610a898261083c565b610a938185610a6d565b9350610aa3818560208601610858565b610aac81610607565b840191505092915050565b6000608082019050610acc6000830187610a5e565b610ad96020830186610796565b610ae66040830185610796565b8181036060830152610af88184610a7e565b905095945050505050565b600081905092915050565b6000610b198261083c565b610b238185610b03565b9350610b33818560208601610858565b80840191505092915050565b6000610b4b8284610b0e565b915081905092915050565b7f4e487b7100000000000000000000000000000000000000000000000000000000600052602260045260246000fd5b60006002820490506001821680610b9d57607f821691505b602082108103610bb057610baf610b56565b5b50919050565b7f446f6e6174696f6e206d7573742062652067726561746572207468616e203000600082015250565b6000610bec601f83610a6d565b9150610bf782610bb6565b602082019050919050565b60006020820190508181036000830152610c1b81610bdf565b9050919050565b60008190508160005260206000209050919050565b60006020601f8301049050919050565b600082821b905092915050565b600060088302610c847fffffffffffffffffffffffffffffffffffffffffffffffffffffffffffffffff82610c47565b610c8e8683610c47565b95508019841693508086168417925050509392505050565b6000819050919050565b6000610ccb610cc6610cc18461078c565b610ca6565b61078c565b9050919050565b6000819050919050565b610ce583610cb0565b610cf9610cf182610cd2565b848454610c54565b825550505050565b600090565b610d0e610d01565b610d19818484610cdc565b505050565b5b81811015610d3d57610d32600082610d06565b600181019050610d1f565b5050565b601f821115610d8257610d5381610c22565b610d5c84610c37565b81016020851015610d6b578190505b610d7f610d7785610c37565b830182610d1e565b50505b505050565b600082821c905092915050565b6000610da560001984600802610d87565b1980831691505092915050565b6000610dbe8383610d94565b9150826002028217905092915050565b610dd78261083c565b67ffffffffffffffff811115610df057610def610618565b5b610dfa8254610b85565b610e05828285610d41565b600060209050601f831160018114610e385760008415610e26578287015190505b610e308582610db2565b865550610e98565b601f198416610e4686610c22565b60005b82811015610e6e57848901518255600182019150602085019450602081019050610e49565b86831015610e8b5784890151610e87601f891682610d94565b8355505b6001600288020188555050505b505050505050565b7f4e487b7100000000000000000000000000000000000000000000000000000000600052601160045260246000fd5b6000610eda8261078c565b9150610ee58361078c565b9250828201905080821115610efd57610efc610ea0565b5b92915050565b60006060820190508181036000830152610f1d8186610a7e565b9050610f2c6020830185610a5e565b610f396040830184610796565b94935050505056fea2646970667358221220ea63d4452bcb4e1bd8407b30f821b01571c7d5b5dac42575b9fb62bd12270db764736f6c63430008180033",
  "linkReferences": {},
  "deployedLinkReferences": {}
}